:020000040800F2
:10000000E00500209D010008311D00082D1D00089D
:100010002F1D00084102000875280008000000009C
:10002000000000000000000000000000351D000876
:100030005D02000800000000331D0008371D0008A5
:10004000B7010008B7010008B7010008B7010008B0
:10005000B7010008B7010008B7010008B7010008A0
:10006000B7010008B7010008B7010008B701000890
:10007000B7010008B7010008B7010008B701000880
:10008000B7010008B7010008B7010008B701000870
:10009000B7010008B7010008B7010008B701000860
:1000A000B7010008B7010008B7010008B701000850
:1000B000B7010008B7010008DD1D0008B7010008FE
:1000C000B7010008B7010008B7010008B701000830
:1000D000B7010008B7010008B7010008B701000820
:1000E000B7010008B7010008B7010008B701000810
:1000F000B7010008B7010008B7010008B701000800
:10010000000000000000000000000000B70100082F
:10011000B7010008B7010008B7010008B7010008DF
:1001200045020008B7010008B701000851020008A5
:10013000B7010008B701000800000000000000003F
:10014000B7010008B7010008B7010008000000006F
:10015000000000000000000000000000000000009F
:100160000000000000000000B7010008B70100080F
:10017000B7010008000000000000000000000000BF
:1001800000000000B7010008DFF80CD000F02EF8E6
:1001900000480047112C0008E00500200648804771
:1001A00006480047FEE7FEE7FEE7FEE7FEE7FEE75C
:1001B000FEE7FEE7FEE7FEE7751D0008890100087F
:1001C00030B50B46014600202022012409E021FA27
:1001D00002F59D4205D303FA02F5491B04FA02F524
:1001E0002844151EA2F10102F1DC30BD064C074D7A
:1001F00006E0E06840F0010394E8070098471034F7
:10020000AC42F6D3FFF7C4FF502E0008702E000852
:1002100010B54FF090441021204602F091FC1021BF
:10022000204600F01CF8054C0221204602F088FC14
:100230002046BDE81040022100F011B8000400483B
:10024000FEE700000148806D00F00CB8500000206F
:100250000148406D00F006B8B4000020704701224C
:1002600000F03EBAF0B4C16B0D6801680C68066C12
:10027000042202FA06F32B420FD063070DD50B6858
:100280009B0603D40B6823F004030B6090F8401026
:100290008A40C16B4A60C16A1BE0022303FA06F779
:1002A0002F424FF0000C4FF0010216D0A70714D5D3
:1002B0000C68A40605D40C6824F00A040C6080F8CD
:1002C000212090F840108B40C16B4B6080F820C01B
:1002D000816A002918D0F0BC08470823B3402B429C
:1002E00012D0230710D50B6823F00E030B6090F893
:1002F0004010C36B02FA01F15960826380F821203B
:1003000080F820C0016BE4E7F0BC70472DE9F05F96
:1003100000254FF09049494FDFF824A1DFF824B1C0
:100320000E460446484510D0BC420ED054450CD071
:100330005C450AD04448844207D04448844204D0F3
:100340004FF4A071424802F0A3FB3004000C01D02E
:10035000300C6DD040F241113D4802F099FB67E04E
:10036000012101FA05F212EA060160D023684FEA82
:10037000450C032000FA0CF083432360EB0804EBE8
:1003800083039E46D3F820C06B074FEAD3680F2340
:1003900003FA08F32CEA030CCEF820C0A3688343C9
:1003A000A360636893436360E2688243E260294824
:1003B00025F0030202449368A8074FEA107C0F203F
:1003C00000FA0CF003404C4502D14FF0000817E052
:1003D000BC4202D14FF0010812E0544502D14FF067
:1003E00002080DE05C4502D14FF0030808E0DFF899
:1003F0005880444502D14FF0040801E04FF0050851
:1004000008FA0CF8984512D1936883439360124A16
:10041000106888431060121D106888431060121D18
:10042000106888431060101D02688A4302606D1CCA
:1004300036FA05F094D1BDE8F09F000000040048B2
:1004400000080048000C0048001000480014004854
:10045000E42C000800000140000401402DE9F84FA1
:1004600000274FF0904BDFF83CA20D46044658455C
:1004700011D054450FD08C4884420CD08B48844214
:1004800009D08B48844206D08A48844203D0C321D5
:10049000894802F0FDFA28680104090C01D0000C1B
:1004A00003D0C421844802F0F3FA6868F8B1012847
:1004B0001DD011281BD0022819D0122817D07F492F
:1004C000884214D07E49884211D07E4988420ED09D
:1004D0007D4988420BD07D49884208D07C498842BA
:1004E00005D0032803D0C521734802F0D1FAA868CB
:1004F000002807D00128FCD00228FAD0C6216E4877
:1005000002F0C6FAC7E00120B840009006407DD056
:100510006868022801D012282BD15C4511D05445BF
:100520000FD0614884420CD06048844209D06048B2
:10053000844206D05F48844203D0D5215E4802F051
:10054000A7FA28690C2807D90E2805D00F2803D050
:10055000D621594802F09CFAF80804EB8002116A8F
:100560007807C30E0F2098408143286998400843BC
:10057000106221687800032202FA00F82A79814685
:1005800002F0030221EA080102FA09F20A4322609A
:100590006868012805D0022803D0112801D012284C
:1005A0001AD1E86838B1012805D0032803D0EA2120
:1005B000414802F06DFAA068E96820EA080001FAF3
:1005C00009F10143A1606168009881432879C0F373
:1005D0000010B84008436060E068A96820EA08009D
:1005E00001FA09F10143E1606868C00052D5394859
:1005F000816941F001018161806927F0030100F008
:100600000100009034480A18916800E042E0B80701
:10061000000F0F23834099435C4501D1002313E071
:10062000544501D101230FE01F4B9C4201D102230D
:100630000AE01E4B9C4201D1032305E01C4B9C4267
:1006400001D1042300E0052383400B439360234939
:1006500008686A68B043D20300D5304308601F4978
:10066000091D08686A68B043920300D530430860EA
:100670001A49083108686A68B043D20200D530438D
:10068000086016490C3108686A68B043920200D5C8
:10069000304308607F1C2E6836FA07F07FF433AFD2
:1006A000BDE8F88F0004004800080048000C00482E
:1006B0000010004800140048E42C0008000011104D
:1006C0000000211000003110000012100000221064
:1006D0000000321000100240000001400004014000
:1006E00070B515460C00064604D14FF4D871074882
:1006F00002F0CEF945B1012D04D040F2B11103480A
:1007000002F0C6F9B46170BDB46270BDE42C00089B
:10071000014800687047000000000020074810B53D
:10072000016841F010010160032000F069F80F201A
:1007300000F006F800F018F8002010BD002002407C
:1007400010B5044607484FF47A710068B0FBF1F029
:1007500000F06AFD00222146501E00F01DF8002026
:1007600010BD0000040000207047000010B5040018
:1007700003D5E821074802F08BF9002C09DB04F0CF
:100780001F01012088406109890001F1E021C1F8C1
:10079000000110BD982C000870B515460C460646A1
:1007A000102A03D3D421144802F072F9102C03D379
:1007B000D521114802F06CF910480068C0F30223FB
:1007C000C3F107022046042A00D90422191D072973
:1007D00001D2002300E0DB1E012404FA02F1491ECD
:1007E000014099409C40641E2C4021433046BDE8A6
:1007F000704002F051B80000982C00080CED00E0A9
:1008000010B5044607280BD0062C09D0052C07D0BC
:10081000042C05D0032C03D0BC21084802F038F981
:10082000074904F0070208684FF6FF03184040EA42
:100830000220044A1043086010BD0000982C0008F4
:100840000CED00E00000FA052DE9F0470E4605002A
:1008500004D140F277218D4802F01AF92868C107C7
:100860000AD1810708D4410706D4000704D44FF405
:100870001E71864802F00CF946B1012E06D0022EF8
:1008800004D040F27921814802F002F9DFF80082B9
:10089000D8F8000000F00700B0420CD2D8F80010E1
:1008A00021F007013143C8F80010D8F8000000F02B
:1008B0000700B0426FD12878764C80071CD5A86815
:1008C000A0B1802812D0902810D0A0280ED0B02837
:1008D0000CD0C0280AD0D02808D0E02806D0F028B4
:1008E00004D04FF42471694802F0D2F86068A96816
:1008F00020F0F000084360602878C00764D0686882
:10090000012768B1012817D0022834D040F297217E
:100910005E4802F0BDF8686801280DD002282AD090
:100920005FF0020191FAA1F0B0FA80F040F02000EF
:10093000400904D0206803E04FF40031F2E7606A18
:1009400091FAA1F1B1FA81F101F01F018F40384213
:100950004BD06068696820F0030008436060FFF7CF
:10096000D7FE6968074641F2883001290CD0022978
:10097000814616D024E04FF00071D3E7FFF7C8FEA0
:10098000C11B494501D918E081466068C0F3810068
:100990000128F3D118E028E0FFF7BAFEC11B494552
:1009A0000BD86068C0F381000228F5D10CE000BFCD
:1009B000FFF7AEFEC11B494502D90320BDE8F08711
:1009C000606810F00C0FF3D1D8F80010404601F029
:1009D0000701B1420BD9016821F0070131430160E1
:1009E000006800F00700B04201D00120E6E7287857
:1009F0004FF4806640074FF4A0674FF4C0684FF48F
:100A0000E06914D5E86860B1B0420AD0B84208D0B5
:100A1000404506D0484504D040F2E9211B4802F089
:100A200037F86068E96820F4E0600843606028787F
:100A3000000715D5286960B1B0420AD0B84208D085
:100A4000404506D0484504D04FF43C710F4802F0B1
:100A50001FF86068296920F4605040EAC1006060B6
:100A600000F04EF86168F02292FAA2F201F0F00173
:100A7000B2FA82F2D140084A515CC8400749086086
:100A80000F20FFF75DFE002098E70000742D00089E
:100A90000020024000100240802C000804000020CA
:100AA00008480949006849684FF4E06292FAA2F2E6
:100AB00001F4E061B2FA82F2D140044A515CC840CC
:100AC000704700000400002000100240902C000835
:100AD00008480949006849684FF4605292FAA2F246
:100AE00001F46051B2FA82F2D140044A515CC8402C
:100AF000704700000400002000100240902C000805
:100B0000144B10B55A68144802F00C0104291DD08A
:100B100008291BD14FF4701494FAA4F402F4701154
:100B2000B4FA84F4E1400D4CDB6A615C0F2494FA62
:100B3000A4F403F00F03B4FA84F4E340074C103438
:100B4000D203E35C03D5B0FBF3F0484310BD044887
:100B5000484310BD0010024000127A00602C0008CB
:100B600000093D002DE9F84F040004D140F21911AD
:100B7000FE4801F08DFF0227DFF8F483FD4D206869
:100B80004FF4803B4FF0000A012660B1C1070DD140
:100B9000810773D4010772D4400771D44FF48D716B
:100BA000F24801F075FF2078C00732D0606848B184
:100BB000584507D0B0F5A02F04D04FF49071EB4802
:100BC00001F066FF68684FF40039C0F38100012826
:100BD00007D06868C0F3810002281BD16868C00391
:100BE00018D599FAA9F1B1FA81F141F0200149092A
:100BF00001D0296800E0696A99FAA9F0B0FA80F09A
:100C000000F01F0006FA00F0014266D0606800287C
:100C10007DD062E06068584503D1286840F4803098
:100C20000AE010B1B0F5A02F13D0286820F480306E
:100C30002860286820F480202860E86AA16820F0F5
:100C40000F000843E862606838B3FFF761FD009069
:100C50000AE0286840F480202860DEE7FFF758FDAE
:100C60000099401A642873D899FAA9F0B0FA80F074
:100C700040F02000400904D0286803E030E0C7E0DD
:100C80003EE1686A99FAA9F1B1FA81F101F01F0118
:100C900006FA01F10842E1D01FE0FFF739FD0090AC
:100CA00006E000BFFFF734FD0099401A6428DAD847
:100CB00099FAA9F0B0FA80F040F02000400901D084
:100CC000286800E0686A99FAA9F1B1FA81F101F0A7
:100CD0001F0106FA01F10842E4D1207880076CD5A3
:100CE000206930B1012804D04FF4AC719F4801F065
:100CF000CFFE60691F2804D940F259119B4801F0CA
:100D0000C7FE686810F00C0F09D0686800E096E034
:100D1000C0F3810002281CD16868C00319D497FA77
:100D2000A7F0B0FA80F040F02000400901D0286818
:100D300000E0686A97FAA7F1B1FA81F101F01F01AA
:100D400006FA01F108422CD02069012877D128E069
:100D50007AE1206990B396FAA6F0B0FA80F048F8EC
:100D60002060FFF7D5FC814606E000BFFFF7D0FC0E
:100D7000A0EB090002289AD897FAA7F0B0FA80F001
:100D800040F02000400901D0286800E0686A97FA26
:100D9000A7F1B1FA81F101F01F0106FA01F1084251
:100DA000E4D02868F82292FAA2F26169B2FA82F2DB
:100DB00020F0F80091400843286026E0FFE796FA0B
:100DC000A6F1B1FA81F148F821A0FFF7A1FC814614
:100DD00006E000BFFFF79CFCA0EB09000228CAD880
:100DE00097FAA7F0B0FA80F040F02000400901D057
:100DF000286800E0686A97FAA7F1B1FA81F101F07A
:100E00001F0106FA01F10842E4D12078000774D5E9
:100E1000A06988B3012806D040F29911534801F027
:100E200037FEA06940B396FAA6F0B0FA80F008EB5E
:100E30008000C0F88064FFF76BFC814606E0A7E104
:100E4000FFF766FCA0EB0900022894D897FAA7F0F8
:100E5000B0FA80F040F06000B6EB501F01D1286876
:100E60000CE097FAA7F0B0FA80F040F06000B7EB22
:100E7000501F02D1286A01E00BE0686A97FAA7F1D7
:100E8000B1FA81F101F01F0106FA01F21042D7D048
:100E900033E096FAA6F1B1FA81F108EB8101C1F8CD
:100EA00080A4FFF735FC814606E000BFFFF730FC69
:100EB000A0EB0900022892D897FAA7F0B0FA80F0C8
:100EC00040F06000B6EB501F01D128680BE097FAA4
:100ED000A7F0B0FA80F040F06000B7EB501F01D1EE
:100EE000286A00E0686A97FAA7F1B1FA81F101F087
:100EF0001F0106FA01F21042D8D12078400773D5BD
:100F0000E0684FF0000940B1012806D0052804D060
:100F100040F2C511154801F0BBFDE869C00009D4D5
:100F2000E86940F08050E861E8694FF0010900F09D
:100F30008050009010480168C90511D4016841F43F
:100F400080710160FFF7E4FB009005E0FFF7E0FB34
:100F50000099401A642877D807480068C005F5D57D
:100F6000E068012813D050B1052807E0742D00086F
:100F700000004242001002400070004011D0286A78
:100F800020F001002862286A20F0040002E0286AAC
:100F900040F001002862E06838B3FFF7B9FB009029
:100FA0000CE0286A40F004002862F0E7FFF7B0FB8D
:100FB0000099411A41F28830814245D897FAA7F04A
:100FC000B0FA80F040F04000B6EB501F01D1286825
:100FD0000DE097FAA7F0B0FA80F040F04000B7EBD0
:100FE000501F03D1286A02E041E00BE0686A97FADB
:100FF000A7F1B1FA81F101F01F0106FA01F21042E6
:10100000D4D02DE0FFF784FB009007E0FFF780FBD2
:101010000099411A41F28830814215D897FAA7F019
:10102000B0FA80F040F04000B6EB501F01D12868C4
:101030000CE097FAA7F0B0FA80F040F04000B7EB70
:10104000501F02D1286A01E0CFE0686A97FAA7F141
:10105000B1FA81F101F01F0106FA01F21042D5D177
:10106000B9F1000F03D0E86920F08050E861E06931
:10107000F0B3012808D0022806D040F209216948BF
:1010800001F006FDE06998B36868C0F381000228AA
:101090007ED0E0694FF080794FF00077022809D0C8
:1010A00099FAA9F0B0FA80F048F820A0FFF730FBD9
:1010B00004469DE0206A30B1584504D040F2122128
:1010C000584801F0E5FC606A80B3B0F5802F2DD060
:1010D000B0F5002F2AD0B0F5402F27D0B0F5801FF3
:1010E00024D0B0F5A01F21D0B0F5C01F1ED000E065
:1010F00093E0B0F5E01F19D0B0F5001F16D0B0F5A1
:10110000101F13D0B0F5201F10D0B0F5301F0DD038
:10111000B0F5401F0AD0B0F5501F07D0B0F5601FE2
:1011200004D040F213213F4801F0B2FC514699FA35
:10113000A9F0B0FA80F0CA46C14648F82010FFF77F
:10114000E7FA804606E000BFFFF7E2FAA0EB0800EE
:1011500002284AD897FAA7F0B0FA80F040F02000B1
:10116000400901D0286800E0686A97FAA7F1B1FA4F
:1011700081F101F01F0106FA01F10842E4D1D4E93E
:1011800008100843696821F474110843686000E09E
:1011900045E09AFAAAF0B0FA80F049F82060FFF72B
:1011A000B7FA044605E000BFFFF7B2FA001B0228B9
:1011B0001BD897FAA7F0B0FA80F040F02000400961
:1011C00001D0286800E0686A97FAA7F1B1FA81F1C6
:1011D00001F01F0106FA01F10842E5D01DE000BF51
:1011E000FFF796FA001B022802D90320BDE8F88F0A
:1011F00097FAA7F0B0FA80F040F02000400901D043
:10120000286800E0686A97FAA7F1B1FA81F101F065
:101210001F0106FA01F10842E2D10020E6E70120B1
:10122000E4E70000742D000810B5401EB0F1807F87
:1012300001D3012010BD4FF0E02460610F21601741
:1012400001F02AFB0020A06107202061002010BDD2
:10125000704770477047000010B5040048D02E4911
:10126000206888421ED0B0F1804F1BD02B498842A5
:1012700018D02B49884215D02A49884212D02A49D1
:1012800088420FD0294988420CD02949884209D088
:101290002849884206D02849884203D0D1212748CE
:1012A00001F0F6FBA06858B1102809D0202807D01B
:1012B000402805D0602803D0D221204801F0E8FB67
:1012C000206948B1B0F5807F06D0B0F5007F03D02B
:1012D000D3211A4801F0DCFBA06928B1802803D093
:1012E000D421164801F0D4FB94F83D0010B107E07A
:1012F000012010BD002084F83C00204600F020F8BA
:10130000022084F83D00211D206800F06DFD0120C1
:1013100084F83D00002010BD002C01400004004076
:10132000000800400010004000140040003401405C
:10133000004001400044014000480140082E0008E0
:10134000094808B5C16941F00401C161C0690022C2
:1013500000F00400009004211E20FFF71DFABDE8F4
:1013600008401E20FFF702BA0010024010B50446E4
:101370000168174881421FD0B1F1804F1CD0154839
:10138000814219D01448814216D01448814213D0AA
:101390001348814210D0134881420DD01248814237
:1013A0000AD01248814207D01148814204D040F24D
:1013B0005B11104801F06CFB2068C16841F001012D
:1013C000C1602068016841F001010160002010BD8A
:1013D000002C0140000400400008004000100040C4
:1013E000001400400034014000400140004401402E
:1013F00000480140082E0008704770B50446006898
:1014000001694FF00005C943890715D4C168C94374
:10141000890711D4E91E01610120207720688069C5
:101420008007204602D0FFF7E7FF04E000F0A7F8AE
:10143000204600F099FA257720680169C9434907D9
:1014400017D4C168C943490713D46FF0040101617F
:10145000022020772068806910F4407F204602D067
:10146000FFF7CAFF04E000F08AF8204600F07CFA9B
:10147000257720680169C943090716D4C168C943A3
:10148000090712D46FF00801016104202077206859
:10149000C0698007204602D0FFF7AEFF04E000F0ED
:1014A0006EF8204600F060FA257720680169C9438C
:1014B000C90617D4C168C943C90613D46FF0100117
:1014C0000161082020772068C06910F4407F204621
:1014D00002D0FFF791FF04E000F051F8204600F041
:1014E00043FA257720680169C943C90708D1C16853
:1014F000C943C90704D1891E0161204600F0BCFA26
:1015000020680169C943090609D4C168C9430906AD
:1015100005D46FF0800101612046FFF79AFE206834
:101520000169C943C90509D4C168C943090605D47D
:101530006FF4807101612046FFF78AFE206801691F
:10154000C943490609D4C168C943490605D46FF0A7
:1015500040010161204600F097FA20680169C94303
:1015600089060BD4C168C943890607D46FF02001EE
:1015700001612046BDE87040FFF76CBE70BD70474A
:101580002DE9F04716000D46044610D0042E0ED06B
:10159000082E0CD00C2E0AD0102E08D0142E06D0F7
:1015A0003C2E04D04FF4DC61984801F071FA2868B1
:1015B000602816D0702814D0A0F58031403910D0A2
:1015C000A0F5803150390CD0A0F58031603908D0B9
:1015D000A0F58031703904D040F2E1618B4801F010
:1015E00057FAA86830B1022804D040F2E261874877
:1015F00001F04EFA286930B1042804D040F2E361CA
:10160000824801F045FA94F83C00012817D04FF0C9
:10161000010984F83C90022084F83D007C497D4B10
:101620007D4F7E4A4FF080480C2E7DD00ADCDFF8DB
:10163000F0C166B1042E35D0082E59D159E00220F0
:10164000BDE8F087102E70D0142EF6D1B9E02068D6
:10165000884214D0404512D0984210D0B8420ED0E3
:1016600090420CD060450AD06E49884207D06E493E
:10167000884204D040F2EF61644801F009FA29463B
:10168000206800F057FC2068816941F00801816101
:101690002068816921F004018161206881692A69DB
:1016A000114324E0206888420ED040450CD0984277
:1016B0000AD0B84208D0904206D0604504D04FF41A
:1016C000E061524801F0E4F92946206800F0A6FCE8
:1016D0002068816941F4006181612068816921F499
:1016E00080618161206881692A6941EA0221816102
:1016F00085E0206888420CD040450AD0984208D046
:10170000B84206D0904204D040F211713F4801F037
:10171000BFF92946206800F0EFFC2068C16941F05C
:101720000801C161206801E009E02DE0C16921F0F4
:101730000401C1612068C1692A69114322E020685F
:1017400088420CD040450AD0984208D0B84206D012
:10175000904204D040F222712C4801F099F92946B8
:10176000206800F037FD2068C16941F40061C16163
:101770002068C16921F48061C1612068C1692A695A
:1017800041EA0221C1613AE02068884206D09042D5
:1017900004D040F233711D4801F07AF929462068DF
:1017A00000F064FD2068416D41F00801416520684A
:1017B000416D21F0040141652068416D2A691143A2
:1017C0001CE02068884206D0904204D040F2447168
:1017D0000E4801F05DF92946206800F07FFD206881
:1017E000416D41F4006141652068416D21F48061E3
:1017F00041652068416D2A6941EA0221416584F80A
:101800003D90002084F83C001AE70000BC2D000841
:10181000002C01400004004000080040003401405A
:1018200000400140004401400048014010B5040060
:101830004CD03049206888421FD0B0F1804F1CD076
:101840002D49884219D02D49884216D02C4988420A
:1018500013D02C49884210D02B4988420DD02B49F7
:1018600088420AD02A49884207D02A49884204D0AF
:1018700040F2E231284801F00BF9A06860B110286D
:101880000AD0202808D0402806D0602804D040F292
:10189000E331214801F0FCF8206950B1B0F5807FB8
:1018A00007D0B0F5007F04D04FF479711A4801F0E9
:1018B000EFF8A06930B1802804D040F2E531164835
:1018C00001F0E6F894F83D0010B107E0012010BDEA
:1018D000002084F83C00204600F020F8022084F824
:1018E0003D00211D206800F07FFA012084F83D00B2
:1018F000002010BD002C0140000400400008004002
:10190000001000400014004000340140004001403D
:101910000044014000480140082E0008104800B56E
:10192000C16987B041F00201C161C16901F00201E2
:101930000591416941F480214161406901AB00F4A6
:101940008020059002200121032283E807000091F6
:10195000049069460348FEF781FD07B000BD000012
:101960000010024000040048704700002DE9F047D5
:1019700005460068384E394FDFF8E480DFF8E49020
:10198000DFF8E4A00C46B0420AD1E4B3042C3DD009
:10199000082C3BD00C2C39D0102C37D0142C35D03F
:1019A000B0F1804F4ED03149884206D15CB3042C4F
:1019B0002CD0082C2AD00C2C28D02D49884206D1B6
:1019C0000CB3042C22D0082C20D00C2C1ED0B842F2
:1019D0000AD1C4B1042C19D0082C17D00C2C15D066
:1019E000102C13D0142C11D0404502D15CB1042C22
:1019F0000CD0484500D134B1504500D11CB140F263
:101A000043411C4800E001E001F042F80122214678
:101A1000286800F041FA2868B04207D0B84205D0E3
:101A2000404503D0484501D0504503D1416C41F4B5
:101A3000004141642868016841F001010160002013
:101A4000BDE8F087002CE1D0042CDFD0082CDDD0DD
:101A50000C2CDBD0D3E70000002C01400034014007
:101A600000400140004401400048014000040040A3
:101A700000080040082E000802480168491C016067
:101A800070470000080000207047000070B5040097
:101A90002FD019492068884210D0184988420DD0AB
:101AA000174988420AD01749884207D01649884208
:101AB00004D04FF41171154800F0EAFF242084F897
:101AC00069002068016821F001010160206800259B
:101AD00005602068456020688560204600F07AF83F
:101AE000E56684F8695084F86A5084F868500020EC
:101AF00070BD012070BD000000380140004400406E
:101B000000480040004C0040005000402C2D0008D0
:101B100010B504000FD0A06928490028284A294B95
:101B200020680AD0884219D0904217D0984215D028
:101B300040F231110FE0012010BD88420ED09042DA
:101B40000CD098420AD02049884207D01F498842C9
:101B500004D04FF49B711E4800F09AFF94F869007E
:101B600028B9002084F86800204600F04DF82420B1
:101B700084F869002068016821F0010101602046B5
:101B800000F0F8FC0128D7D0606A10B1204600F0C0
:101B9000DDFB2068416821F4904141602068816844
:101BA00021F02A0181602068016841F00101016093
:101BB0002046BDE8104000F0AFBC000000380140F6
:101BC0000044004000480040004C004000500040ED
:101BD0002C2D00080A4810B5016941F4003101615B
:101BE000016921F400310161064C20212046FEF7F5
:101BF0008DFB2046BDE810404021FEF787BB00006A
:101C000000100240000C004830B5194887B0416907
:101C100041F480114161416901F4801105914169EC
:101C200041F480114161416901F480110591C1695C
:101C300041F40031C161C069072400F4003005900F
:101C40002020009002200190012002900320CDE985
:101C50000304084D69462846FEF700FC402000902A
:101C6000694604942846FEF7F9FB07B030BD000032
:101C700000100240000C00482DE9F843044690F89B
:101C800069001F4616460D4620284DD1CDB1C6B17C
:101C900094F86800012847D0012084F868004FF0CC
:101CA0000008C4F86C80212084F869005034FEF7E5
:101CB0002FFD24F8026B814624F852694FF48056B8
:101CC00018E00120BDE8F883B4F85200401EA4F8E3
:101CD00052004B46002280212046009700F098FDDC
:101CE000A0B9A068B04201D1206988B115F8010BF4
:101CF00021680885B4F852000028E5D14B4600223F
:101D000040212046009700F083FD30B10320D9E741
:101D100035F8020BC0F30800EAE7202084F86900D8
:101D200084F868800020CDE70220CBE7FEE7FEE7DD
:101D3000704770477047704730B58FB001200090F2
:101D400000040024CDE901040225CDE907504FF439
:101D5000E01009906846FEF705FF0F20CDE90A055F
:101D60006802CDE90C4002210AA80E94FEF76CFD32
:101D70000FB030BD1448016841F470010160134890
:101D8000016841F0010101604168114A1140416060
:101D90000168104A11400160016821F4802101604E
:101DA000416821F4FE014160C16A21F00F01C16266
:101DB000016B094A11400163002181600249C0039F
:101DC000803908607047000088ED00E00010024094
:101DD0000CC07FF8FFFFF6FECCFC00FF0148FFF7C8
:101DE0000CBB0000100000202DE9F0430268234BDB
:101DF000234D244E244C4FF08049984207D048454B
:101E000005D0A84203D0B04201D0A04203D122F0B5
:101E100070074A683A431D4FDFF874C0DFF87480DA
:101E200098420DD048450BD0A84209D0B04207D007
:101E3000A04205D0B84203D0604501D0404503D14F
:101E400022F44075CA682A434D6922F080022A4371
:101E500002608A68C2620A688262984207D0A04221
:101E600005D0B84203D0604501D0404501D1096991
:101E7000016301214161BDE8F0830000002C0140B5
:101E800000040040000800400034014000400140D0
:101E9000004401400048014070B504461D48164604
:101EA0000D46844219D0B4F1804F16D01A488442AE
:101EB00013D01A48844210D0194884420DD01948D2
:101EC00084420AD01848844207D01848844204D07B
:101ED00041F25B51164800F0DBFD85B1042D0ED0B8
:101EE000082D0CD00C2D0AD0102D08D0142D06D0A2
:101EF0003C2D04D041F25C510D4800F0C9FD012099
:101F0000216AA84081432162206AAE4030432062AA
:101F100070BD0000002C014000040040000800409B
:101F200000340140004001400044014000480140AD
:101F3000082E00082DE9F05F0446006A0D4620F0E7
:101F400001002062216A6768A0692D4AAE681040CE
:101F500020F003022868DFF8AC9040EA020821F084
:101F600002000643DFF8A0A0DFF8A0B04C4509D07E
:101F7000544507D05C4505D02548844202D0254809
:101F800084420ED1E86830B1082804D041F28321A0
:101F9000214800F07DFDE86826F00801084320F0A4
:101FA00004064C4509D0544507D05C4505D0184877
:101FB000844202D01748844219D1A869B0F5007F45
:101FC00005D020B141F29021134800F061FD68690D
:101FD000B0F5807F05D020B141F291210E4800F08C
:101FE00057FD27F440716869AF690843074367608C
:101FF000C4F81880686860632662BDE8F09F00003E
:102000008FFFFEFF002C01400034014000400140E2
:102010000044014000480140082E00082DE9F04727
:102020000446006A0D4620F010002062216A6768AD
:10203000A0692A4ADFF8A89010402A6820F440706E
:1020400040EA022821F02000A968DFF898A040EAC1
:1020500001164C4501D054450FD1E86830B108282D
:1020600004D041F2CD21204800F012FDE96826F0AD
:10207000800040EA011020F040064C450AD054454B
:1020800008D01A48844205D01948844202D0194821
:1020900084421BD1A869B0F5007F05D020B141F280
:1020A000DB21114800F0F4FC6869B0F5807F05D0B1
:1020B00020B141F2DC210C4800F0EAFC696927F408
:1020C000406040EA8100A96940EA81076760C4F87E
:1020D00018806868A0632662BDE8F087FF8FFFFE66
:1020E000002C014000340140082E0008004001404F
:1020F00000440140004801402DE9F0470446006AD1
:102100000D4620F480702062216A6768E0692A4ADF
:10211000DFF8A890104020F003022868DFF8A0A0A4
:1021200040EA020821F40070A9684C4540EA012603
:1021300001D054450FD1E86830B1082804D041F2ED
:102140001C31204800F0A4FCE96826F4006040EA55
:10215000012020F480664C450AD0544508D01A4826
:10216000844205D01948844202D0194884421BD1C8
:10217000A869B0F5007F05D020B141F2293111489E
:1021800000F086FC6869B0F5807F05D020B141F28F
:102190002A310C4800F07CFC696927F4405040EA81
:1021A0000110A96940EA01176760C4F81C806868DB
:1021B000E0632662BDE8F0878FFFFEFF002C014040
:1021C00000340140082E0008004001400044014056
:1021D000004801402DE9F0410446006A0D4620F414
:1021E00080502062216A6668E069194A10402A68B6
:1021F00020F4407040EA022821F40050A96840EA27
:102200000137144884420BD01348844208D0134845
:10221000844205D01248844202D0124884420ED132
:102220006869B0F5807F05D020B141F26A310E486F
:1022300000F02EFC696926F4804040EA8116666051
:10224000C4F81C80686820642762BDE8F081000043
:10225000FF8FFFFE002C0140003401400040014090
:102260000044014000480140082E000830B5026AD1
:1022700022F480320262046A4268436D114D2B40A1
:102280000D681D4324F400330C8943EA04430E4CCB
:10229000A0420BD00D4CA04208D00D4CA04205D05E
:1022A0000C4CA04202D00C4CA04204D14C6922F448
:1022B000803242EA042242604565496881650362D2
:1022C00030BD00008FFFFEFF002C014000340140B4
:1022D00000400140004401400048014030B5026A1E
:1022E00022F480120262046A4268436D114D24F4A4
:1022F00000142B400D6843EA05230D8944EA055478
:102300000D4DA8420BD00D4DA84208D00C4DA8424F
:1023100005D00C4DA84202D00B4DA84204D14D6906
:1023200022F4802242EA8522426043654968C16501
:10233000046230BDFF8FFFFE002C014000340140DD
:1023400000400140004401400048014070B504468F
:10235000406AFF2804D940F6A2016B4800F098FBC0
:1023600094F82400C00710D0A06A38B1B0F5003F3F
:1023700004D040F6A701644800F08AFB2068416859
:10238000A26A21F400311143416094F824008007CF
:1023900010D5E06A38B1B0F5803F04D040F6AE0108
:1023A000594800F075FB20684168E26A21F48031E9
:1023B0001143416094F82400400710D5206B38B1D8
:1023C000B0F5802F04D040F6B5014F4800F060FB17
:1023D00020684168226B21F480211143416094F808
:1023E0002400000710D5606B38B1B0F5004F04D061
:1023F00040F6BC01444800F04BFB20684168626B2A
:1024000021F400411143416094F82400C00610D526
:10241000A06B38B1B0F5805F04D040F6C3013A48F4
:1024200000F036FB20688168A26B21F480511143D3
:10243000816094F82400800610D5E06B38B1B0F5C7
:10244000005F04D040F6CA012F4800F021FB20684D
:102450008168E26B21F400511143816094F82400FB
:1024600040063AD52949206888420AD0284988423E
:1024700007D02849884204D040F6D101224800F014
:1024800007FB206C4FF4801530B1A84204D040F611
:10249000D2011D4800F0FCFA20684168226C21F44A
:1024A000801111434160206CA84216D1606C68B164
:1024B000B0F5001F0AD0B0F5800F07D0B0F5C00FFF
:1024C00004D040F6D701104800F0E2FA20684168D5
:1024D000626C21F4C0011143416094F824000006AD
:1024E00010D5A06C38B1B0F5002F04D040F6DF0154
:1024F000054800F0CDFA20684168A26C21F4002163
:102500001143416070BD00002C2D000800380140CF
:102510000044004000480040F8B500260446C66666
:10252000FEF7F6F80546206800686FF07E47000762
:1025300008D52B4600224FF400112046009700F0EA
:1025400067F960B92068006840070AD52B46002269
:102550004FF480012046009700F05AF908B103209B
:10256000F8BD202084F8690084F86A0084F8686067
:102570000020F8BD2DE9F0410446002640689A4944
:1025800010253746884204D340F63901974800F0B9
:102590007FFAA0684FF4805830B1404504D040F62F
:1025A0003A01924800F074FAE06840450BD050B10F
:1025B000B0F5405F07D0B0F5005F04D040F63B01B6
:1025C0008A4800F065FA206950B1B0F5806F07D0F5
:1025D000B0F5C06F04D040F63C01844800F058FAD2
:1025E000606930F00C0100D120B940F63D017F4810
:1025F00000F04EFAA06968B1B0F5807F0AD0B0F55E
:10260000007F07D0B0F5407F04D040F63E01774808
:1026100000F03EFA206A38B1B0F5006F04D040F601
:102620003F01724800F034FAE0694FF4004830B1DD
:10263000404504D04FF404616C4800F029FA216948
:10264000A068E269084361691143084321680A6888
:1026500049F20C639A4302430A6020684168E268C9
:1026600021F4405111434160216AA0690843216867
:102670008A6822F4306202438A605D4B20685D49BB
:102680004FF4803298420CD1096B11F0030106D04F
:1026900001294DD002294DD003294CD146E0012516
:1026A00049E0554B98420CD1096B11F440313BD0B5
:1026B00091423DD0B1F5003F3CD0B1F5403F3AD119
:1026C00034E04E4B98420DD1096B11F440212BD0D0
:1026D000B1F5802F2CD0B1F5002F2BD0B1F5402FC4
:1026E00029D123E0464B98420DD1096B11F44011DA
:1026F0001AD0B1F5801F1BD0B1F5001F1AD0B1F56B
:10270000401F18D112E03F4B984214D1096B11F4CD
:10271000400109D0B1F5800F0AD0B1F5000F09D002
:10272000B1F5400F07D101E0002504E0022502E0E9
:10273000042500E00825E369434526D1092D1DD273
:10274000DFE805F00508121C151C1C1C1800FEF71C
:10275000A7F901E0FEF7BCF94100606801EB500108
:10276000B1FBF0F086B20AE027496068F6E7FEF7B1
:10277000C7F9F1E7606802EB5001F1E7012726F0A5
:102780000F00C6F3420108431EE0092D27D2DFE8FF
:1027900005F005080B26122626261E00FEF780F9F6
:1027A0000BE0FEF795F908E0184A616802EB510268
:1027B000B2FBF1F110E0FEF7A3F90146606801EB0E
:1027C0005001B1FBF0F080B22168C86008E0626897
:1027D00008EB5201B1FBF2F189B2C16000E00127C0
:1027E0003846BDE8F0810000415489002C2D0008D6
:1027F0000038014000100240004400400048004002
:10280000004C0040005000400024F40000127A0008
:102810002DE9F041984617460E460446069D1DE0F8
:10282000681C1BD02DB1FDF773FFA0EB0800A84278
:1028300014D92068016821F4D07101602068816892
:1028400021F001018160202084F8690084F86A0089
:10285000002084F868000320BDE8F0812068C0698A
:1028600036EA000004D00020B842D9D00020F3E7B7
:102870000120F9E7FEE700000FB4054B10B503A9EE
:10288000044A029800F028F810BC5DF814FB000020
:10289000952A00080C0000200907090E002804DB17
:1028A00000F1E02080F80014704700F00F0000F104
:1028B000E02080F8141D704702E008C8121F08C10C
:1028C000002AFAD170477047002001E001C1121FB1
:1028D000002AFBD1704700002DE9FF4F8BB09A46CC
:1028E0000F460546002606E025280BD052460D99D6
:1028F00090476D1C761C28780028F5D10FB0304623
:10290000BDE8F08F0024A0460122604900E00443A6
:1029100015F8013F203B02FA03F00842F7D128786E
:102920002E2817D115F8010F44F004042A280ED0E0
:102930006FF02F022878A0F1300109290AD808EB9E
:10294000880102EB410100EB01086D1CF2E757F82A
:10295000048B6D1C287869283ED006DC0028CDD079
:1029600063280BD0642804D136E0732810D0752872
:102970004BD052460D999047761C85E017F8040B12
:102980008DF8000000208DF80100E946012003E0E9
:1029900057F8049B4FF0FF3061074FF0000401D45B
:1029A0000AE0641C44450DDA8442FADB19F804108D
:1029B0000029F6D106E0641C8442FCDB19F80410FF
:1029C0000029F8D1264404E019F8010B52460D996C
:1029D0009047641EF8D257E001CF4FF00A0B002851
:1029E00002DA40422D2102E0210504D52B218DF889
:1029F0002410012103E0E10705D02021F7E70DF1C4
:102A0000200908910CE00021F9E701CF4FF00A0BF3
:102A1000F9E75946FDF7D4FB01F1300209F8012D21
:102A20000028F6D1ADEB090000F1200B600701D4BE
:102A30004FF00108D84502DDA8EB0B0000E00020B4
:102A40008046002406E009A85246005D0D99904793
:102A5000641C761C08988442F5DB04E03020524662
:102A60000D999047761CB8F10001A8F10108F5DC3A
:102A700005E019F8010B52460D999047761CBBF101
:102A80000001ABF1010BF4DC6D1C34E709280100F7
:102A9000FEE7000013B50223012269460148FFF753
:102AA000EBF81CBD180100200B4810B50949016066
:102AB0004FF41651416000218160C1600C22016118
:102AC000C0E905214162FEF7E1FFBDE81040024880
:102AD000FFF71EB8004400401801002010B514484C
:102AE000144988B00068144AB0FBF1F11348491E3C
:102AF0000024C0E90021C721C0E9031484604461B7
:102B00008461FEF793FE6020059400900694632094
:102B10000190029404940394082269460748FEF742
:102B20002FFD08210548FEF721FF08B010BD000069
:102B30000400002000366E01000400409C010020CB
:102B4000174B184A82B0984207D1536943F40013D7
:102B50005361526902F4001209E0134B984208D104
:102B6000536943F480235361526902F48022009236
:102B700002E0B0F1904F0AD00C4A1160012151607F
:102B800091600321D160114602B0FDF767BC536923
:102B900043F400335361526902F40032E7E7000066
:102BA0000010004800100240000400488801002086
:102BB00010B500F02BF8FFF777FFFDF729FBFFF7C3
:102BC0008DFFBDE8104000F001B800000C4810B5C2
:102BD000006842F21071B0FBF1F10B48094A491E3E
:102BE0000260416042F20F720021C0E9032181605E
:102BF0008161FEF731FBBDE810400348FEF7B6BB2C
:102C00000400002000080040100000207047000071
:102C10000025FDF783FDFFF78FF8FFF7C9FF064C8E
:102C20000026266020680228FCD129466D1C03A0DE
:102C30002660FFF721FEF5E7080000205465737455
:102C4000204F4B2C7761697474696E672E2E2E2E7F
:102C50002E2E2C636F6E7465723D25640D0A000084
:102C600002030405060708090A0B0C0D0E0F1010CD
:102C70000102030405060708090A0B0C0D0E0F10CC
:102C8000000000000000000001020304060708091C
:102C900000000000010203042E2E5C2E2E5C2E2E5E
:102CA0005C2E2E5C2E2E5C2E2E5C44726976657234
:102CB000735C53544D3332463378785F48414C5FF0
:102CC0004472697665725C5372635C73746D3332FF
:102CD000663378785F68616C5F636F727465782EB5
:102CE000630000002E2E5C2E2E5C2E2E5C2E2E5CA1
:102CF0002E2E5C2E2E5C447269766572735C535482
:102D00004D3332463378785F48414C5F4472697680
:102D100065725C5372635C73746D333266337878BA
:102D20005F68616C5F6770696F2E63002E2E5C2E8A
:102D30002E5C2E2E5C2E2E5C2E2E5C2E2E5C447273
:102D400069766572735C53544D3332463378785FDD
:102D500048414C5F4472697665725C5372635C7380
:102D6000746D3332663378785F68616C5F75617259
:102D7000742E63002E2E5C2E2E5C2E2E5C2E2E5C6E
:102D80002E2E5C2E2E5C447269766572735C5354F1
:102D90004D3332463378785F48414C5F44726976F0
:102DA00065725C5372635C73746D3332663378782A
:102DB0005F68616C5F7263632E6300002E2E5C2E71
:102DC0002E5C2E2E5C2E2E5C2E2E5C2E2E5C4472E3
:102DD00069766572735C53544D3332463378785F4D
:102DE00048414C5F4472697665725C5372635C73F0
:102DF000746D3332663378785F68616C5F74696DC7
:102E00005F65782E630000002E2E5C2E2E5C2E2E29
:102E10005C2E2E5C2E2E5C2E2E5C447269766572C2
:102E2000735C53544D3332463378785F48414C5F7E
:102E30004472697665725C5372635C73746D33328D
:102E4000663378785F68616C5F74696D2E6300002B
:102E5000702E00080000002010000000B8280008B4
:102E6000802E000810000020D0050000C8280008AF
:102E70000000000000127A000000000000000000C6
:040000050800018965
:00000001FF
